{
  "_format": "hh-sol-artifact-1",
  "contractName": "AvanomadWallet",
  "sourceName": "src/blockchain/contracts/legacy/AvanomadWallet.sol",
  "abi": [
    {
      "inputs": [],
      "stateMutability": "nonpayable",
      "type": "constructor"
    },
    {
      "inputs": [
        {
          "internalType": "address",
          "name": "owner",
          "type": "address"
        }
      ],
      "name": "OwnableInvalidOwner",
      "type": "error"
    },
    {
      "inputs": [
        {
          "internalType": "address",
          "name": "account",
          "type": "address"
        }
      ],
      "name": "OwnableUnauthorizedAccount",
      "type": "error"
    },
    {
      "anonymous": false,
      "inputs": [
        {
          "indexed": true,
          "internalType": "address",
          "name": "token",
          "type": "address"
        },
        {
          "indexed": true,
          "internalType": "address",
          "name": "from",
          "type": "address"
        },
        {
          "indexed": false,
          "internalType": "uint256",
          "name": "amount",
          "type": "uint256"
        }
      ],
      "name": "Deposit",
      "type": "event"
    },
    {
      "anonymous": false,
      "inputs": [
        {
          "indexed": true,
          "internalType": "address",
          "name": "user",
          "type": "address"
        },
        {
          "indexed": true,
          "internalType": "address",
          "name": "executor",
          "type": "address"
        },
        {
          "indexed": false,
          "internalType": "bytes",
          "name": "action",
          "type": "bytes"
        }
      ],
      "name": "MetaTransaction",
      "type": "event"
    },
    {
      "anonymous": false,
      "inputs": [
        {
          "indexed": true,
          "internalType": "address",
          "name": "previousOwner",
          "type": "address"
        },
        {
          "indexed": true,
          "internalType": "address",
          "name": "newOwner",
          "type": "address"
        }
      ],
      "name": "OwnershipTransferred",
      "type": "event"
    },
    {
      "anonymous": false,
      "inputs": [
        {
          "indexed": true,
          "internalType": "address",
          "name": "token",
          "type": "address"
        },
        {
          "indexed": true,
          "internalType": "address",
          "name": "to",
          "type": "address"
        },
        {
          "indexed": false,
          "internalType": "uint256",
          "name": "amount",
          "type": "uint256"
        }
      ],
      "name": "Withdrawal",
      "type": "event"
    },
    {
      "inputs": [
        {
          "internalType": "address",
          "name": "token",
          "type": "address"
        },
        {
          "internalType": "uint256",
          "name": "amount",
          "type": "uint256"
        }
      ],
      "name": "deposit",
      "outputs": [],
      "stateMutability": "nonpayable",
      "type": "function"
    },
    {
      "inputs": [
        {
          "internalType": "address",
          "name": "userAddress",
          "type": "address"
        },
        {
          "internalType": "bytes",
          "name": "functionData",
          "type": "bytes"
        },
        {
          "internalType": "bytes32",
          "name": "r",
          "type": "bytes32"
        },
        {
          "internalType": "bytes32",
          "name": "s",
          "type": "bytes32"
        },
        {
          "internalType": "uint8",
          "name": "v",
          "type": "uint8"
        }
      ],
      "name": "executeMetaTransaction",
      "outputs": [
        {
          "internalType": "bytes",
          "name": "",
          "type": "bytes"
        }
      ],
      "stateMutability": "nonpayable",
      "type": "function"
    },
    {
      "inputs": [
        {
          "internalType": "address",
          "name": "token",
          "type": "address"
        }
      ],
      "name": "getBalance",
      "outputs": [
        {
          "internalType": "uint256",
          "name": "",
          "type": "uint256"
        }
      ],
      "stateMutability": "view",
      "type": "function"
    },
    {
      "inputs": [
        {
          "internalType": "address",
          "name": "",
          "type": "address"
        }
      ],
      "name": "nonces",
      "outputs": [
        {
          "internalType": "uint256",
          "name": "",
          "type": "uint256"
        }
      ],
      "stateMutability": "view",
      "type": "function"
    },
    {
      "inputs": [
        {
          "internalType": "address",
          "name": "",
          "type": "address"
        }
      ],
      "name": "operators",
      "outputs": [
        {
          "internalType": "bool",
          "name": "",
          "type": "bool"
        }
      ],
      "stateMutability": "view",
      "type": "function"
    },
    {
      "inputs": [],
      "name": "owner",
      "outputs": [
        {
          "internalType": "address",
          "name": "",
          "type": "address"
        }
      ],
      "stateMutability": "view",
      "type": "function"
    },
    {
      "inputs": [],
      "name": "renounceOwnership",
      "outputs": [],
      "stateMutability": "nonpayable",
      "type": "function"
    },
    {
      "inputs": [
        {
          "internalType": "address",
          "name": "token",
          "type": "address"
        },
        {
          "internalType": "address",
          "name": "to",
          "type": "address"
        },
        {
          "internalType": "uint256",
          "name": "amount",
          "type": "uint256"
        }
      ],
      "name": "rescueFunds",
      "outputs": [],
      "stateMutability": "nonpayable",
      "type": "function"
    },
    {
      "inputs": [
        {
          "internalType": "address",
          "name": "operator",
          "type": "address"
        },
        {
          "internalType": "bool",
          "name": "status",
          "type": "bool"
        }
      ],
      "name": "setOperator",
      "outputs": [],
      "stateMutability": "nonpayable",
      "type": "function"
    },
    {
      "inputs": [
        {
          "internalType": "address",
          "name": "newOwner",
          "type": "address"
        }
      ],
      "name": "transferOwnership",
      "outputs": [],
      "stateMutability": "nonpayable",
      "type": "function"
    },
    {
      "inputs": [
        {
          "internalType": "address",
          "name": "token",
          "type": "address"
        },
        {
          "internalType": "address",
          "name": "to",
          "type": "address"
        },
        {
          "internalType": "uint256",
          "name": "amount",
          "type": "uint256"
        }
      ],
      "name": "withdraw",
      "outputs": [],
      "stateMutability": "nonpayable",
      "type": "function"
    }
  ],
  "bytecode": "0x608060405234801561001057600080fd5b50338061003757604051631e4fbdf760e01b81526000600482015260240160405180910390fd5b61004081610063565b50336000908152600160208190526040909120805460ff191690911790556100b3565b600080546001600160a01b038381166001600160a01b0319831681178455604051919092169283917f8be0079c531659141344cd1fd0a4f28419497f9722a3daafe3b4186f6b6457e09190a35050565b610b5f806100c26000396000f3fe608060405234801561001057600080fd5b50600436106100a95760003560e01c8063715018a611610071578063715018a6146101455780637ecebe001461014d5780638da5cb5b1461017b578063d9caed1214610196578063f2fde38b146101a9578063f8b2cb4f146101bc57600080fd5b80630c53c51c146100ae57806313e7c9d8146100d757806347e7ef241461010a578063558a72971461011f5780636ccae05414610132575b600080fd5b6100c16100bc366004610859565b6101cf565b6040516100ce9190610963565b60405180910390f35b6100fa6100e5366004610996565b60016020526000908152604090205460ff1681565b60405190151581526020016100ce565b61011d6101183660046109b8565b61044f565b005b61011d61012d3660046109f0565b610548565b61011d610140366004610a27565b61057b565b61011d610686565b61016d61015b366004610996565b60026020526000908152604090205481565b6040519081526020016100ce565b6000546040516001600160a01b0390911681526020016100ce565b61011d6101a4366004610a27565b61069a565b61011d6101b7366004610996565b6106ea565b61016d6101ca366004610996565b610728565b6001600160a01b03851660009081526002602090815260408083205490516060939192610204918a91859130918c9101610a63565b60408051601f198184030181529082905280516020918201207f19457468657265756d205369676e6564204d6573736167653a0a33320000000091830191909152603c820152605c0160408051601f198184030181528282528051602091820120600080855291840180845281905260ff88169284019290925260608301899052608083018890529092509060019060a0016020604051602081039080840390855afa1580156102b8573d6000803e3d6000fd5b505050602060405103519050886001600160a01b0316816001600160a01b03161461031e5760405162461bcd60e51b8152602060048201526011602482015270496e76616c6964207369676e617475726560781b60448201526064015b60405180910390fd5b6001600160a01b038916600090815260026020526040812080549161034283610ab0565b9190505550600080306001600160a01b03168a6040516103629190610ad7565b6000604051808303816000865af19150503d806000811461039f576040519150601f19603f3d011682016040523d82523d6000602084013e6103a4565b606091505b5091509150816103f65760405162461bcd60e51b815260206004820152601c60248201527f5472616e73616374696f6e20657865637574696f6e206661696c6564000000006044820152606401610315565b336001600160a01b03168b6001600160a01b03167f4fdc836f577d92922eea2b6f6bf88786a5c09535c39beea8446acbbebb971a518c6040516104399190610963565b60405180910390a39a9950505050505050505050565b6040516323b872dd60e01b8152336004820152306024820152604481018290526001600160a01b038316906323b872dd906064016020604051808303816000875af11580156104a2573d6000803e3d6000fd5b505050506040513d601f19601f820116820180604052508101906104c69190610af3565b6105045760405162461bcd60e51b815260206004820152600f60248201526e151c985b9cd9995c8819985a5b1959608a1b6044820152606401610315565b60405181815233906001600160a01b038416907f5548c837ab068cf56a2c2479df0882a4922fd203edb7517321831d95078c5f629060200160405180910390a35050565b610550610799565b6001600160a01b03919091166000908152600160205260409020805460ff1916911515919091179055565b610583610799565b60405163a9059cbb60e01b81526001600160a01b0383811660048301526024820183905284169063a9059cbb906044016020604051808303816000875af11580156105d2573d6000803e3d6000fd5b505050506040513d601f19601f820116820180604052508101906105f69190610af3565b6106345760405162461bcd60e51b815260206004820152600f60248201526e151c985b9cd9995c8819985a5b1959608a1b6044820152606401610315565b816001600160a01b0316836001600160a01b03167f2717ead6b9200dd235aad468c9809ea400fe33ac69b5bfaa6d3e90fc922b63988360405161067991815260200190565b60405180910390a3505050565b61068e610799565b61069860006107c6565b565b3360009081526001602052604090205460ff166105835760405162461bcd60e51b815260206004820152600e60248201526d139bdd08185d5d1a1bdc9a5e995960921b6044820152606401610315565b6106f2610799565b6001600160a01b03811661071c57604051631e4fbdf760e01b815260006004820152602401610315565b610725816107c6565b50565b6040516370a0823160e01b81523060048201526000906001600160a01b038316906370a0823190602401602060405180830381865afa15801561076f573d6000803e3d6000fd5b505050506040513d601f19601f820116820180604052508101906107939190610b10565b92915050565b6000546001600160a01b031633146106985760405163118cdaa760e01b8152336004820152602401610315565b600080546001600160a01b038381166001600160a01b0319831681178455604051919092169283917f8be0079c531659141344cd1fd0a4f28419497f9722a3daafe3b4186f6b6457e09190a35050565b80356001600160a01b038116811461082d57600080fd5b919050565b634e487b7160e01b600052604160045260246000fd5b803560ff8116811461082d57600080fd5b600080600080600060a0868803121561087157600080fd5b61087a86610816565b9450602086013567ffffffffffffffff8082111561089757600080fd5b818801915088601f8301126108ab57600080fd5b8135818111156108bd576108bd610832565b604051601f8201601f19908116603f011681019083821181831017156108e5576108e5610832565b816040528281528b60208487010111156108fe57600080fd5b826020860160208301376000602084830101528098505050505050604086013592506060860135915061093360808701610848565b90509295509295909350565b60005b8381101561095a578181015183820152602001610942565b50506000910152565b602081526000825180602084015261098281604085016020870161093f565b601f01601f19169190910160400192915050565b6000602082840312156109a857600080fd5b6109b182610816565b9392505050565b600080604083850312156109cb57600080fd5b6109d483610816565b946020939093013593505050565b801515811461072557600080fd5b60008060408385031215610a0357600080fd5b610a0c83610816565b91506020830135610a1c816109e2565b809150509250929050565b600080600060608486031215610a3c57600080fd5b610a4584610816565b9250610a5360208501610816565b9150604084013590509250925092565b60006bffffffffffffffffffffffff19808760601b168352856014840152808560601b166034840152508251610aa081604885016020870161093f565b9190910160480195945050505050565b600060018201610ad057634e487b7160e01b600052601160045260246000fd5b5060010190565b60008251610ae981846020870161093f565b9190910192915050565b600060208284031215610b0557600080fd5b81516109b1816109e2565b600060208284031215610b2257600080fd5b505191905056fea2646970667358221220e246340e377b4b5c80977b1fea5fc776af2be5865ed85615f6bdfc172583328264736f6c63430008140033",
  "linkReferences": {},
  "deployedLinkReferences": {}
}