{
  "_format": "hh-sol-artifact-1",
  "contractName": "BaseFiWallet",
  "sourceName": "src/blockchain/contracts/BaseFiWallet.sol",
  "abi": [
    {
      "inputs": [],
      "stateMutability": "nonpayable",
      "type": "constructor"
    },
    {
      "inputs": [
        {
          "internalType": "address",
          "name": "owner",
          "type": "address"
        }
      ],
      "name": "OwnableInvalidOwner",
      "type": "error"
    },
    {
      "inputs": [
        {
          "internalType": "address",
          "name": "account",
          "type": "address"
        }
      ],
      "name": "OwnableUnauthorizedAccount",
      "type": "error"
    },
    {
      "anonymous": false,
      "inputs": [
        {
          "indexed": true,
          "internalType": "address",
          "name": "token",
          "type": "address"
        },
        {
          "indexed": true,
          "internalType": "address",
          "name": "from",
          "type": "address"
        },
        {
          "indexed": false,
          "internalType": "uint256",
          "name": "amount",
          "type": "uint256"
        }
      ],
      "name": "Deposit",
      "type": "event"
    },
    {
      "anonymous": false,
      "inputs": [
        {
          "indexed": true,
          "internalType": "address",
          "name": "user",
          "type": "address"
        },
        {
          "indexed": true,
          "internalType": "address",
          "name": "executor",
          "type": "address"
        },
        {
          "indexed": false,
          "internalType": "bytes",
          "name": "action",
          "type": "bytes"
        }
      ],
      "name": "MetaTransaction",
      "type": "event"
    },
    {
      "anonymous": false,
      "inputs": [
        {
          "indexed": true,
          "internalType": "address",
          "name": "operator",
          "type": "address"
        },
        {
          "indexed": false,
          "internalType": "bool",
          "name": "status",
          "type": "bool"
        }
      ],
      "name": "OperatorUpdated",
      "type": "event"
    },
    {
      "anonymous": false,
      "inputs": [
        {
          "indexed": true,
          "internalType": "address",
          "name": "previousOwner",
          "type": "address"
        },
        {
          "indexed": true,
          "internalType": "address",
          "name": "newOwner",
          "type": "address"
        }
      ],
      "name": "OwnershipTransferred",
      "type": "event"
    },
    {
      "anonymous": false,
      "inputs": [
        {
          "indexed": true,
          "internalType": "address",
          "name": "token",
          "type": "address"
        },
        {
          "indexed": true,
          "internalType": "address",
          "name": "to",
          "type": "address"
        },
        {
          "indexed": false,
          "internalType": "uint256",
          "name": "amount",
          "type": "uint256"
        }
      ],
      "name": "Withdrawal",
      "type": "event"
    },
    {
      "inputs": [
        {
          "internalType": "address",
          "name": "token",
          "type": "address"
        },
        {
          "internalType": "uint256",
          "name": "amount",
          "type": "uint256"
        }
      ],
      "name": "deposit",
      "outputs": [],
      "stateMutability": "nonpayable",
      "type": "function"
    },
    {
      "inputs": [
        {
          "internalType": "address",
          "name": "userAddress",
          "type": "address"
        },
        {
          "internalType": "bytes",
          "name": "functionData",
          "type": "bytes"
        },
        {
          "internalType": "bytes32",
          "name": "r",
          "type": "bytes32"
        },
        {
          "internalType": "bytes32",
          "name": "s",
          "type": "bytes32"
        },
        {
          "internalType": "uint8",
          "name": "v",
          "type": "uint8"
        }
      ],
      "name": "executeMetaTransaction",
      "outputs": [
        {
          "internalType": "bytes",
          "name": "",
          "type": "bytes"
        }
      ],
      "stateMutability": "nonpayable",
      "type": "function"
    },
    {
      "inputs": [
        {
          "internalType": "address",
          "name": "token",
          "type": "address"
        }
      ],
      "name": "getBalance",
      "outputs": [
        {
          "internalType": "uint256",
          "name": "",
          "type": "uint256"
        }
      ],
      "stateMutability": "view",
      "type": "function"
    },
    {
      "inputs": [
        {
          "internalType": "address",
          "name": "",
          "type": "address"
        }
      ],
      "name": "nonces",
      "outputs": [
        {
          "internalType": "uint256",
          "name": "",
          "type": "uint256"
        }
      ],
      "stateMutability": "view",
      "type": "function"
    },
    {
      "inputs": [
        {
          "internalType": "address",
          "name": "",
          "type": "address"
        }
      ],
      "name": "operators",
      "outputs": [
        {
          "internalType": "bool",
          "name": "",
          "type": "bool"
        }
      ],
      "stateMutability": "view",
      "type": "function"
    },
    {
      "inputs": [],
      "name": "owner",
      "outputs": [
        {
          "internalType": "address",
          "name": "",
          "type": "address"
        }
      ],
      "stateMutability": "view",
      "type": "function"
    },
    {
      "inputs": [],
      "name": "renounceOwnership",
      "outputs": [],
      "stateMutability": "nonpayable",
      "type": "function"
    },
    {
      "inputs": [
        {
          "internalType": "address",
          "name": "token",
          "type": "address"
        },
        {
          "internalType": "address",
          "name": "to",
          "type": "address"
        },
        {
          "internalType": "uint256",
          "name": "amount",
          "type": "uint256"
        }
      ],
      "name": "rescueFunds",
      "outputs": [],
      "stateMutability": "nonpayable",
      "type": "function"
    },
    {
      "inputs": [
        {
          "internalType": "address",
          "name": "operator",
          "type": "address"
        },
        {
          "internalType": "bool",
          "name": "status",
          "type": "bool"
        }
      ],
      "name": "setOperator",
      "outputs": [],
      "stateMutability": "nonpayable",
      "type": "function"
    },
    {
      "inputs": [
        {
          "internalType": "address",
          "name": "newOwner",
          "type": "address"
        }
      ],
      "name": "transferOwnership",
      "outputs": [],
      "stateMutability": "nonpayable",
      "type": "function"
    },
    {
      "inputs": [
        {
          "internalType": "address",
          "name": "token",
          "type": "address"
        },
        {
          "internalType": "address",
          "name": "to",
          "type": "address"
        },
        {
          "internalType": "uint256",
          "name": "amount",
          "type": "uint256"
        }
      ],
      "name": "withdraw",
      "outputs": [],
      "stateMutability": "nonpayable",
      "type": "function"
    }
  ],
  "bytecode": "0x608060405234801561001057600080fd5b50338061003757604051631e4fbdf760e01b81526000600482015260240160405180910390fd5b61004081610063565b50336000908152600160208190526040909120805460ff191690911790556100b3565b600080546001600160a01b038381166001600160a01b0319831681178455604051919092169283917f8be0079c531659141344cd1fd0a4f28419497f9722a3daafe3b4186f6b6457e09190a35050565b610beb806100c26000396000f3fe608060405234801561001057600080fd5b50600436106100a95760003560e01c8063715018a611610071578063715018a6146101455780637ecebe001461014d5780638da5cb5b1461017b578063d9caed1214610196578063f2fde38b146101a9578063f8b2cb4f146101bc57600080fd5b80630c53c51c146100ae57806313e7c9d8146100d757806347e7ef241461010a578063558a72971461011f5780636ccae05414610132575b600080fd5b6100c16100bc3660046108e5565b6101cf565b6040516100ce91906109ef565b60405180910390f35b6100fa6100e5366004610a22565b60016020526000908152604090205460ff1681565b60405190151581526020016100ce565b61011d610118366004610a44565b61046e565b005b61011d61012d366004610a7c565b610575565b61011d610140366004610ab3565b6105dc565b61011d6106f5565b61016d61015b366004610a22565b60026020526000908152604090205481565b6040519081526020016100ce565b6000546040516001600160a01b0390911681526020016100ce565b61011d6101a4366004610ab3565b610709565b61011d6101b7366004610a22565b610776565b61016d6101ca366004610a22565b6107b4565b6001600160a01b03851660009081526002602090815260408083205490516060939192610204918a91859130918c9101610aef565b60408051601f198184030181529082905280516020918201207f19457468657265756d205369676e6564204d6573736167653a0a33320000000091830191909152603c820152605c0160408051601f198184030181528282528051602091820120600080855291840180845281905260ff88169284019290925260608301899052608083018890529092509060019060a0016020604051602081039080840390855afa1580156102b8573d6000803e3d6000fd5b505050602060405103519050886001600160a01b0316816001600160a01b03161461032a5760405162461bcd60e51b815260206004820152601f60248201527f42617365466957616c6c65743a20496e76616c6964207369676e61747572650060448201526064015b60405180910390fd5b6001600160a01b038916600090815260026020526040812080549161034e83610b3c565b9190505550600080306001600160a01b03168a60405161036e9190610b63565b6000604051808303816000865af19150503d80600081146103ab576040519150601f19603f3d011682016040523d82523d6000602084013e6103b0565b606091505b5091509150816104155760405162461bcd60e51b815260206004820152602a60248201527f42617365466957616c6c65743a205472616e73616374696f6e206578656375746044820152691a5bdb8819985a5b195960b21b6064820152608401610321565b336001600160a01b03168b6001600160a01b03167f4fdc836f577d92922eea2b6f6bf88786a5c09535c39beea8446acbbebb971a518c60405161045891906109ef565b60405180910390a39a9950505050505050505050565b6040516323b872dd60e01b8152336004820152306024820152604481018290526001600160a01b038316906323b872dd906064016020604051808303816000875af11580156104c1573d6000803e3d6000fd5b505050506040513d601f19601f820116820180604052508101906104e59190610b7f565b6105315760405162461bcd60e51b815260206004820152601d60248201527f42617365466957616c6c65743a205472616e73666572206661696c65640000006044820152606401610321565b60405181815233906001600160a01b038416907f5548c837ab068cf56a2c2479df0882a4922fd203edb7517321831d95078c5f629060200160405180910390a35050565b61057d610825565b6001600160a01b038216600081815260016020908152604091829020805460ff191685151590811790915591519182527f966c160e1c4dbc7df8d69af4ace01e9297c3cf016397b7914971f2fbfa32672d910160405180910390a25050565b6105e4610825565b60405163a9059cbb60e01b81526001600160a01b0383811660048301526024820183905284169063a9059cbb906044016020604051808303816000875af1158015610633573d6000803e3d6000fd5b505050506040513d601f19601f820116820180604052508101906106579190610b7f565b6106a35760405162461bcd60e51b815260206004820152601d60248201527f42617365466957616c6c65743a205472616e73666572206661696c65640000006044820152606401610321565b816001600160a01b0316836001600160a01b03167f2717ead6b9200dd235aad468c9809ea400fe33ac69b5bfaa6d3e90fc922b6398836040516106e891815260200190565b60405180910390a3505050565b6106fd610825565b6107076000610852565b565b3360009081526001602052604090205460ff166105e45760405162461bcd60e51b815260206004820152602560248201527f42617365466957616c6c65743a204e6f7420617574686f72697a6564206f70656044820152643930ba37b960d91b6064820152608401610321565b61077e610825565b6001600160a01b0381166107a857604051631e4fbdf760e01b815260006004820152602401610321565b6107b181610852565b50565b6040516370a0823160e01b81523060048201526000906001600160a01b038316906370a0823190602401602060405180830381865afa1580156107fb573d6000803e3d6000fd5b505050506040513d601f19601f8201168201806040525081019061081f9190610b9c565b92915050565b6000546001600160a01b031633146107075760405163118cdaa760e01b8152336004820152602401610321565b600080546001600160a01b038381166001600160a01b0319831681178455604051919092169283917f8be0079c531659141344cd1fd0a4f28419497f9722a3daafe3b4186f6b6457e09190a35050565b80356001600160a01b03811681146108b957600080fd5b919050565b634e487b7160e01b600052604160045260246000fd5b803560ff811681146108b957600080fd5b600080600080600060a086880312156108fd57600080fd5b610906866108a2565b9450602086013567ffffffffffffffff8082111561092357600080fd5b818801915088601f83011261093757600080fd5b813581811115610949576109496108be565b604051601f8201601f19908116603f01168101908382118183101715610971576109716108be565b816040528281528b602084870101111561098a57600080fd5b82602086016020830137600060208483010152809850505050505060408601359250606086013591506109bf608087016108d4565b90509295509295909350565b60005b838110156109e65781810151838201526020016109ce565b50506000910152565b6020815260008251806020840152610a0e8160408501602087016109cb565b601f01601f19169190910160400192915050565b600060208284031215610a3457600080fd5b610a3d826108a2565b9392505050565b60008060408385031215610a5757600080fd5b610a60836108a2565b946020939093013593505050565b80151581146107b157600080fd5b60008060408385031215610a8f57600080fd5b610a98836108a2565b91506020830135610aa881610a6e565b809150509250929050565b600080600060608486031215610ac857600080fd5b610ad1846108a2565b9250610adf602085016108a2565b9150604084013590509250925092565b60006bffffffffffffffffffffffff19808760601b168352856014840152808560601b166034840152508251610b2c8160488501602087016109cb565b9190910160480195945050505050565b600060018201610b5c57634e487b7160e01b600052601160045260246000fd5b5060010190565b60008251610b758184602087016109cb565b9190910192915050565b600060208284031215610b9157600080fd5b8151610a3d81610a6e565b600060208284031215610bae57600080fd5b505191905056fea2646970667358221220374737f14b0e27caa681fe1710f8aa3e13da928b676d69c19261aa8d058853fc64736f6c63430008140033",
  "linkReferences": {},
  "deployedLinkReferences": {}
}